:04000000FEEF7FF0A0
:10150000008A1D000000002A220000AE2100000019
:1015100000000000000000000000000000000000CB
:1015200000000000000000F821E621D4210000F0B6
:101530002000000000000034220000C6200000004F
:101540000000003E220000506572736F6E20556EE1
:10155000646574656374656437200A0D00506572B4
:10156000736F6E20446574656374656437200A0D7B
:1015700000526573756C743A202564200A0D0000D2
:1015800020C538F521C539F522C53AF523C53BF507
:1015900024C53CF525C53DF526C53EF527C53FF5D7
:1015A0003FAE02D0010E01D0000E366E376A3650C3
:1015B0003710D8B410D03F1E3E1E3D1E3C1E3B1EB1
:1015C0003A1E391E386C000E39223A223B223C2248
:1015D0003D223E223F2265AF669365BF05D065512F
:1015E00008E16405D8B005D0000E336E010E326EEE
:1015F00004D064C532F565C533F562C534F563C5FD
:1016000035F536503710D8A402D066A503D034067D
:10161000D8A03506000E416E1F0E406E000E956F6D
:101620007CD04006D8A04106760E4024D96E050E27
:101630004120DA6E38C501F539C502F53AC503F522
:101640003BC504F53CC505F53DC506F53EC507F5AA
:101650003FC508F50A0E096E000E0A6E000E0B6EED
:10166000000E0C6E000E0D6E000E0E6E000E0F6E54
:10167000000E106E5EEC0DF001C528F502C529F5CF
:1016800003C52AF504C52BF505C52CF506C52DF5B2
:1016900007C52EF508C52FF528C513F52AC514F57D
:1016A00001EC10F01350300FDF6E3206D8A0330675
:1016B0003406D8A0350638C501F539C502F53AC556
:1016C00003F53BC504F53CC505F53DC506F53EC52E
:1016D00007F53FC508F50A0E096E000E0A6E000EEA
:1016E0000B6E000E0C6E000E0D6E000E0E6E000ED8
:1016F0000F6E000E106EBAEC0CF001C538F502C585
:1017000039F503C53AF504C53BF505C53CF506C5F5
:101710003DF507C53EF508C53FF541BE20D0415017
:1017200003E14004D8A01BD0385039103A103B10C8
:101730003C103D103E103F10D8A473D733BE05D0E7
:10174000335002E13204D8B06CD735BE08D03550E2
:1017500003E13404D8A003D0050166B362D7365044
:101760003710D8A403D0050166A518D04006D8A02C
:10177000410636503710D8A404D0000E316E2B0E1F
:1017800003D0000E316E2D0E306E760E4024D96ED1
:10179000050E4120DA6E6100C0F4DFF41EC513F5BA
:1017A0001FC514F5760E4024156E050E4120166EE9
:1017B00034C517F535C518F5F0EC0DF013C51EF559
:1017C00014C51FF51200610010F5D9F4610014F57D
:1017D000DAF4DFC4F6F4150EF76EF86A0800F55077
:1017E000250AD8A4AAD0610010F5D9F4610014F537
:1017F000DAF4DF2A000E636F000E626F62C566F5D1
:1018000063C567F564696569610010F5D9F4610025
:1018100014F5DAF4DFC4F6F4150EF76EF86A080072
:10182000F550640AD8B410D0610010F5D9F4610005
:1018300014F5DAF4DFC4F6F4150EF76EF86A080052
:10184000F550690AD8A447D0610010F5D9F46100B9
:1018500014F5DAF4DF2A610018F5D9F461001CF5FB
:10186000DAF461007CF348F5020EDE2661007CF3B9
:1018700049F5000EDD22610020F5D9F4610024F560
:10188000DAF4610078F34AF5610074F34BF5000E69
:101890004BBEFF0E4C6E4D6E4E6E4F6E506E516EC7
:1018A00042C51EF543C51FF54AC520F54BC521F5B8
:1018B0004CC522F54DC523F54EC524F54FC525F57C
:1018C00050C526F551C527F5C0EC0AF01EC542F5F6
:1018D0001FC543F51200610010F5D9F4610014F53D
:1018E000DAF4DFC4F6F4150EF76EF86A0800F55066
:1018F000250AD8A416D0610010F5D9F4610014F5BA
:10190000DAF4DF2A000E046E250E036E42C505F5DB
:1019100043C506F504EC0FF0000E436E010E426E57
:101920001200610010F5D9F4610014F5DAF4DF2A31
:10193000000E436E000E426E1200610010F5D9F4E5
:10194000610014F5DAF4DFC4F6F4150EF76EF86AE8
:101950000800F550036E046A42C505F543C506F557
:1019600004EC0FF0610010F5D9F4610014F5DAF41D
:10197000DF2AD2D7000E126E10AE12D0101E0F1E2C
:101980000E1E0D1E0C1E0B1E0A1E096C000E0A22D6
:101990000B220C220D220E220F221022010E126E9B
:1019A00008AE12D0081E071E061E051E041E031ECA
:1019B000021E016C000E02220322042205220622CE
:1019C00007220822010E121A21EE13F1070EDE6A19
:1019D000E806FDE209500A100B100C100D100E1055
:1019E0000F101010D8B446D0010E116E0AD0D89046
:1019F00009360A360B360C360D360E360F361036D3
:101A0000112A10AEF4D7D890133614361536163680
:101A10001736183619361A360950015C0A50025822
:101A20000B5003580C5004580D5005580E500658D2
:101A30000F50075810500858D8A011D00950015E17
:101A40000A50025A0B50035A0C50045A0D50055AB2
:101A50000E50065A0F50075A1050085A1380D8904B
:101A600010320F320E320D320C320B320A32093282
:101A7000112EC9D71250D8B410D01A1E191E181E14
:101A8000171E161E151E141E136C000E142215228E
:101A900016221722182219221A2213C501F514C57D
:101AA00002F515C503F516C504F517C505F518C5E6
:101AB00006F519C507F51AC508F51200000E126ED5
:101AC00008AE12D0081E071E061E051E041E031EA9
:101AD000021E016C000E02220322042205220622AD
:101AE00007220822010E126E10AE10D0101E0F1E1B
:101AF0000E1E0D1E0C1E0B1E0A1E096C000E0A2265
:101B00000B220C220D220E220F22102209500A1045
:101B10000B100C100D100E100F101010D8B43CD07C
:101B2000010E116E0AD0D89009360A360B360C36E3
:101B30000D360E360F361036112A10AEF4D7095076
:101B4000015C0A5002580B5003580C5004580D50B9
:101B500005580E5006580F50075810500858D8A076
:101B600010D00950015E0A50025A0B50035A0C5013
:101B7000045A0D50055A0E50065A0F50075A10506D
:101B8000085AD89010320F320E320D320C320B320E
:101B90000A320932112ED3D71250D8B410D0081EF1
:101BA000071E061E051E041E031E021E016C000EEB
:101BB000022203220422052206220722082201C54E
:101BC00001F502C502F503C503F504C504F505C515
:101BD00005F506C506F507C507F508C508F51200A1
:101BE000050166A10AD015C50CF516C50DF513C57E
:101BF0000EF514C50FF5B1EC0FF018BE05D017C5E2
:101C00001CF518C51DF504D0000E1D6E000E1C6ECF
:101C1000000E1B6E000E1A6E0CD0000E046E200E0D
:101C2000036E13C505F514C506F504EC0FF01A4A4A
:101C30001B2A1C501A5C1B50800A196E1D50800A0A
:101C40001958D8A0EAD7050166B10AD015C50CF518
:101C500016C50DF513C50EF514C50FF5B1EC0FF053
:101C600015C501F516C502F54CEC10F01C50012409
:101C7000136E1D500220146E120094EC0FF0D00E63
:101C800038EC11F0000E05019D6F120E8CEC10F077
:101C900001C59AF502C59BF50EEC11F005019C6F8C
:101CA0009C51D8B411D09D51D8B4EFD7710E586E55
:101CB0009AC559F59BC55AF5A0EC10F0470E586E21
:101CC000A0EC10F0C082DED79C51D8A4DED79D5185
:101CD000D8A404D05D0E586EA0EC10F003011EBF16
:101CE0000ED0C0A202D0010E01D0000EFF0A5F6E1E
:101CF0005F46C0505F18FD0B5F18C06E1E8F010E4F
:101D0000C2D7000EBE6E000EBF6E020EC06E1F0E5A
:101D1000C66E700EC76EFD0EC86E370E0401006FE2
:101D2000500E086FFD0E106F000E016F000E096F50
:101D3000000E116F000E026F000E0A6F000E126F80
:101D4000370E036FF00E0B6F13693F0E046FF00E2A
:101D50000C6F14690D0E0201726F030E066F100EE8
:101D6000106F000E0401056F000E066F000E076F66
:101D7000000E0D6F000E0E6F000E0F6F000E156F30
:101D8000000E166F000E176F1200000E0201A16FF9
:101D9000000EA26F000EA36F000EA46F000EA56FC1
:101DA000000EA66F000EA76F000EA86F000EA96FA1
:101DB000000EAA6FB00EAB6F800EAC6F000EAD6F51
:101DC000330EAE6F000EAF6F000EB06F000EB16F2E
:101DD000000EB26F000EB36F000E016E000E026EA9
:101DE000FCEC10F0000E016E000E026EF3EC10F031
:101DF000000E016E000E026EEAEC10F0000E0501FE
:101E00006F6F000E6E6F120005500610D8B404D02C
:101E100005500610D8A404D00350CDEC10F01200E9
:101E200020EE04F00550D9260650DA22DE50DE10EE
:101E3000D8B416D020EE04F00550D9260650DA2288
:101E400010EE02F00550E1260650E222DE50E65C7C
:101E5000E650800A0B6EDE50800A0B58D8B0120094
:101E600020EE02F00550D9260650DA22DE2A000EB6
:101E7000DD221200000E0301D96F000EDA6F000E92
:101E8000DB6F000EDC6F000EDF6F000EE06F000EE8
:101E9000E56F000EE76F000EEC6F050EEE6F000EA3
:101EA000EF6F000EF06F000EF16F000EF26F000E7C
:101EB000F46F100EF56F000EF66F000EF76F000E48
:101EC000F86F000EF96F000EFA6F840EF36FB49482
:101ED000B590120054C557F5000E616F000E606F8B
:101EE00013D052C542F553C543F5570E446E050E47
:101EF000456E55C546F556C547F5E3EC0BF0425027
:101F0000050160274350612361005CF5F6F4150E6E
:101F1000F76EF86A0800F5500009D8A4E2D760C54A
:101F200052F561C553F51200BFEC10F081EC0EF0D4
:101F30003AEC0FF0E7EC0FF033EC10F01AEC10F085
:101F400005EC11F033EC11F03DEC11F0B1EC10F0B8
:101F500063EC10F078EC10F0C5EC0EF0CDEC0FF067
:101F60001200000E126E000E116E0BD010C503F59C
:101F7000046A0EC505F50FC506F504EC0FF0114A0D
:101F8000122A11500C24D96E12500D20DA6EDF5037
:101F9000106E1050D8B41200E9D7D69AB490D680FB
:101FA000000E016E000E026E2EEC11F0B990D6827A
:101FB000000E016E000E026E29EC11F0BD90D68469
:101FC000000E016E000E026E24EC11F01200000EE5
:101FD0000001D56F000ED76F1C0ED86F120ED96F8F
:101FE000060EDA6F1C0EDB6F080EDC6F020EDD6F63
:101FF000000EDE6F000EDF6F000ED46F850ED66F01
:10200000120014BE05D0145010E11304D8B00DD046
:1020100013C515F514C516F5151E161E154A162AF4
:1020200015C513F516C514F5120013C513F514C51F
:1020300014F51200020ED56F020ED76F230ED86F63
:10204000220ED96F120EDA6F1C0EDB6F200EDC6FC2
:10205000450EDD6F000EDE6F000EDF6F000ED46FD9
:10206000850ED66F1200010ED56F020ED76F220EAD
:10207000D86F1C0ED96F120EDA6F120EDB6F200EA6
:10208000DC6F050EDD6F000EDE6F000EDF6F000EE1
:10209000D46F850ED66F120001C503F502C504F595
:1020A00002D0014A022A610004F4D9F4610008F464
:1020B000DAF4DF50D8A4F5D70350015C016E045068
:1020C0000258026E1200040E0301206F080E1F6FEB
:1020D000000E216F600E1D6F000E1C6F000E016E52
:1020E000000E026E1FEC11F0B696E00E1E6F12008D
:1020F000040E2D6F000E2C6F000E2E6FF70E2A6F40
:10210000000E296F000E016E000E026E1AEC11F027
:10211000BD96800E2B6F1200056E610014F4ECF377
:102120000301F38FF39DF381F3B1FED7EB51046EFE
:10213000036AEA510324016E000E0420026E1200AD
:10214000590E5D6E050E5E6E000E526E000E536EE1
:1021500058C554F55D0E556E050E566E6AEC0FF0BF
:1021600012002F0E0001A46F120EA56F810EA66F34
:10217000800EA76F000EA96FA00EA36F1200600E55
:102180000001AD6F000EAF6F000EB36F020EB16FA6
:10219000000EB06F000EAC6F1200026ED7EC10F0A4
:1021A0000009D8B4FBD7025015EC11F01200000E54
:1021B000016E0201B0BBABAB02D0010E016E01504B
:1021C000120001EE60F1360EEE6AE806FDE1000154
:1021D0003DEF0EF001500210D8B4120001C568F5B1
:1021E00002C569F5120001500210D8B4120001C5F1
:1021F0006AF502C56BF5120001500210D8B4120046
:1022000001C56CF502C56DF51200820E706F000EEF
:10221000716F020E726F050E736F12000001D4A56C
:1022200002D0010E1200000E1200016E610004F4D3
:10223000A3F2120001C596F502C597F5120001C57B
:1022400098F502C599F5120001C570F502C571F542
:10225000120001C572F502C573F5120001C574F5CF
:1022600002C575F51200800EA26F740EA06F1200E9
:10227000016E610004F4A0F01200C00E0301D76FDC
:0222800012004A
:04FFFC00E1EF10F031
:020000040020DA
:10000000FF0FFF0FFF0FFF0FFF0FFF0FFF0FFF0F80
:10001000FF0FFF0FFF0FFF0FFF0FFF0FFF0FFF0F70
:10002000FF0FFF0FFF0FFF0FFF0FFF0FFF0FFF0F60
:10003000FF0FFF0FFF0FFF0FFF0FFF0FFF0FFF0F50
:020000040030CA
:0A0000008CFFF7FF9FFFFFFFFFFFDB
:00000001FF
