:04000000FEEF7FF0A0
:1015000000D81600000000481B0000CC1A000000A4
:1015100000000000000000000000000000000000CB
:1015200000000000000000161B041BF21A00000E51
:101530001A000000000000521B0000E41900000027
:101540000000005C1B0000506572736F6E20556ECA
:101550006465746563746564200A0D005065727378
:101560006F6E204465746563746564200A0D000025
:10157000610010F5D9F4610014F5DAF4DFC4F6F473
:10158000150EF76EF86A0800F550250AD8A443D066
:10159000610010F5D9F4610014F5DAF4DF2A000EC9
:1015A000246E000E236E23C527F524C528F5256873
:1015B0002668610010F5D9F4610014F5DAF4DFC48F
:1015C000F6F4150EF76EF86A0800F550250AD8A44F
:1015D00016D0610010F5D9F4610014F5DAF4DF2AB1
:1015E000000E3A6E250E396E42C53BF543C53CF5FB
:1015F000E0EC0BF0000E436E010E426E1200610033
:1016000010F5D9F4610014F5DAF4DF2A000E436E08
:10161000000E426E1200610010F5D9F4610014F55D
:10162000DAF4DFC4F6F4150EF76EF86A0800F55028
:10163000396E3A6A42C53BF543C53CF5E0EC0BF028
:10164000610010F5D9F4610014F5DAF4DF2AD2D77D
:10165000000EBE6E000EBF6E020EC06E1F0EC66E76
:10166000700EC76EFD0EC86E370E0401006F500E6F
:10167000086FFD0E106F000E016F000E096F000E57
:10168000116F000E026F000E0A6F000E126F370E00
:10169000036FF00E0B6F13693F0E046FF00E0C6FAB
:1016A00014690D0E0201726F030E066F100E106F9B
:1016B000000E0401056F000E066F000E076F000E8E
:1016C0000D6F000E0E6F000E0F6F000E156F000EE7
:1016D000166F000E176F1200000E0201A16F000EB0
:1016E000A26F000EA36F000EA46F000EA56F000E78
:1016F000A66F000EA76F000EA86F000EA96F000E58
:10170000AA6FB00EAB6F800EAC6F000EAD6F330ED4
:10171000AE6F000EAF6F000EB06F000EB16F000E17
:10172000B26F000EB36F000E376E000E386E8BEC8A
:101730000DF0000E376E000E386E82EC0DF0000ECC
:10174000376E000E386E79EC0DF0000E306E000E24
:101750002F6E12006FEC0CF0D00EC7EC0DF0000EE7
:10176000576E120E1BEC0DF09DEC0DF0566E5650A0
:10177000D8B409D05750D8B4F4D7470E4E6E2FECDA
:101780000DF0C082ECD75650D8A4EBD75750D8A450
:1017900004D05C0E4E6E2FEC0DF003011EBF0ED078
:1017A000C0A202D0010E01D0000EFF0A536E5346B4
:1017B000C0505318FD0B5318C06E1E8F010ED0D7AA
:1017C0003B503C10D8B404D03B503C10D8A404D0BB
:1017D00039505CEC0DF0120020EE04F03B50D9269D
:1017E0003C50DA22DE50DE10D8B416D020EE04F0E1
:1017F0003B50D9263C50DA2210EE02F03B50E12655
:101800003C50E222DE50E65CE650800A416EDE503B
:10181000800A4158D8B0120020EE02F03B50D92681
:101820003C50DA22DE2A000EDD221200000E0301F7
:10183000D96F000EDA6F000EDB6F000EDC6F000E4A
:10184000DF6F000EE06F000EE56F000EE76F000E19
:10185000EC6F050EEE6F000EEF6F000EF06F000ED6
:10186000F16F000EF26F000EF46F100EF56F000EA8
:10187000F66F000EF76F000EF86F000EF96F000E96
:10188000FA6F840EF36FB494B59012004AC54DF50B
:10189000000E226E000E216E12D048C542F549C5D9
:1018A00043F54D0E446E050E456E4BC546F54CC5D1
:1018B00047F5B8EC0AF0425021264350222261003D
:1018C00034F5F6F4150EF76EF86A0800F5500009C5
:1018D000D8A4E3D721C548F522C549F512004EEC3E
:1018E0000DF028EC0BF016EC0CF0A6EC0CF0D9EC9B
:1018F0000CF0C0EC0CF094EC0DF0C2EC0DF0CCEC64
:101900000DF040EC0DF0F2EC0CF007EC0DF06CEC8F
:101910000BF08CEC0CF01200D69AB490D680000E2E
:10192000376E000E386EBDEC0DF0B990D682000E09
:10193000376E000E386EB8EC0DF0BD90D684000EF8
:10194000376E000E386EB3EC0DF01200000E000181
:10195000D56F000ED76F1C0ED86F120ED96F060E02
:10196000DA6F1C0EDB6F080EDC6F020EDD6F000EEF
:10197000DE6F000EDF6F000ED46F850ED66F120083
:10198000020ED56F020ED76F230ED86F220ED96FBD
:10199000120EDA6F1C0EDB6F200EDC6F450EDD6F52
:1019A000000EDE6F000EDF6F000ED46F850ED66F57
:1019B0001200010ED56F020ED76F220ED86F1C0ECB
:1019C000D96F120EDA6F120EDB6F200EDC6F050E70
:1019D000DD6F000EDE6F000EDF6F000ED46F850E20
:1019E000D66F1200040E0301206F080E1F6F000E49
:1019F000216F600E1D6F000E1C6F000E376E000E03
:101A0000386EAEEC0DF0B696E00E1E6F1200040EAE
:101A10002D6F000E2C6F000E2E6FF70E2A6F000E2A
:101A2000296F000E376E000E386EA9EC0DF0BD96D2
:101A3000800E2B6F12003B6E6100ECF4ECF303019F
:101A4000F38FF39DF381F3B1FED7EB513A6E396A10
:101A5000EA513924376E000E3A20386E12004F0ECC
:101A6000516E050E526E000E486E000E496E4EC548
:101A70004AF5510E4B6E050E4C6E46EC0CF0120002
:101A80002F0E0001A46F120EA56F810EA66F800E9F
:101A9000A76F000EA96FA00EA36F1200600E0001C9
:101AA000AD6F000EAF6F000EB36F020EB16F000E80
:101AB000B06F000EAC6F1200386E66EC0DF00009CE
:101AC000D8B4FBD73850A4EC0DF01200000E376EDE
:101AD0000201B0BBABAB02D0010E376E3750120023
:101AE00001EE01F1360EEE6AE806FDE10001AAEF13
:101AF0000BF037503810D8B4120037C529F538C567
:101B00002AF5120037503810D8B4120037C52BF51B
:101B100038C52CF5120037503810D8B4120037C52C
:101B20002DF538C52EF51200820E706F000E716F04
:101B3000020E726F050E736F12000001D4A502D061
:101B4000010E1200000E1200376E6100DCF4A3F2E9
:101B5000120037C558F538C559F5120037C55AF582
:101B600038C55BF5120037C531F538C532F51200BE
:101B700037C533F538C534F5120037C535F538C5E6
:101B800036F51200800EA26F740EA06F1200376E31
:101B90006100DCF4A0F01200C00E0301D76F120048
:04FFFC0070EF0DF0A5
:020000040020DA
:10000000FF0FFF0FFF0FFF0FFF0FFF0FFF0FFF0F80
:10001000FF0FFF0FFF0FFF0FFF0FFF0FFF0FFF0F70
:10002000FF0FFF0FFF0FFF0FFF0FFF0FFF0FFF0F60
:10003000FF0FFF0FFF0FFF0FFF0FFF0FFF0FFF0F50
:020000040030CA
:0A0000008CFFF7FF9FFFFFFFFFFFDB
:00000001FF
