:04000000FEEF7FF0A0
:1015000000082000000000E2240000A023000000EA
:1015100000000000000000000000000000000000CB
:101520000000000000000046242A240E2400004889
:1015300023000000000000EC2400007423000000E1
:10154000000000F6240000506572736F6E20556E27
:10155000646574656374656437200A0D00506572B4
:10156000736F6E20446574656374656437200A0D7B
:1015700000526573756C743A202564200A0D0000D2
:1015800020C538F521C539F522C53AF523C53BF507
:1015900024C53CF525C53DF526C53EF527C53FF5D7
:1015A0003FBED5EF0AF0D8EF0AF0010ED9EF0AF0EE
:1015B000000E366E376A36503710D8B4E2EF0AF0B4
:1015C000E4EF0AF0F4EF0AF03F1E3E1E3D1E3C1E03
:1015D0003B1E3A1E391E386C000E39223A223B223D
:1015E0003C223D223E223F22050165BFFAEF0AF070
:1015F000FCEF0AF0FDEF0AF0669365BF0AEF0BF00F
:10160000655106E16405D8B008EF0BF00AEF0BF066
:1016100010EF0BF0000E336E010E326E14EF0BF074
:1016200064C532F565C533F562C534F563C535F576
:1016300036503710D8A41FEF0BF021EF0BF028EF36
:101640000BF066A526EF0BF028EF0BF02BEF0BF05D
:101650003406D8A03506000E416E1F0E406E000EF7
:10166000956FAFEF0BF04006D8A04106760E4024F0
:10167000D96E050E4120DA6E38C501F539C502F57F
:101680003AC503F53BC504F53CC505F53DC506F572
:101690003EC507F53FC508F50A0E096E000E0A6E35
:1016A000000E0B6E000E0C6E000E0D6E000E0E6E18
:1016B000000E0F6E000E106EF1EC0DF001C528F556
:1016C00002C529F503C52AF504C52BF505C52CF57A
:1016D00006C52DF507C52EF508C52FF528C513F548
:1016E0002AC514F5C9EC10F01350300FDF6E320626
:1016F000D8A033063406D8A0350638C501F539C55B
:1017000002F53AC503F53BC504F53CC505F53DC5F5
:1017100006F53EC507F53FC508F50A0E096E000E31
:101720000A6E000E0B6E000E0C6E000E0D6E000E9B
:101730000E6E000E0F6E000E106E2DEC0DF001C53A
:1017400038F502C539F503C53AF504C53BF505C5BD
:101750003CF506C53DF507C53EF508C53FF541BE5C
:10176000BAEF0BF0415008E14004D8A0BAEF0BF0FB
:10177000BCEF0BF0EDEF0BF0385039103A103B1086
:101780003C103D103E103F10D8A4C9EF0BF0CBEF3A
:101790000BF033EF0BF033BED8EF0BF0335006E114
:1017A0003204D8B0D6EF0BF0D8EF0BF033EF0BF0DC
:1017B00035BEE3EF0BF0355008E13404D8A0E3EF79
:1017C0000BF0E5EF0BF0EDEF0BF0050166B3EBEF7F
:1017D0000BF0EDEF0BF033EF0BF036503710D8A4D1
:1017E000F4EF0BF0F6EF0BF0FEEF0BF0050166A542
:1017F000FCEF0BF0FEEF0BF01DEF0CF04006D8A055
:10180000410636503710D8A408EF0CF00AEF0CF060
:1018100010EF0CF0000E316E2B0E306E14EF0CF04A
:10182000000E316E2D0E306E760E4024D96E050EF0
:101830004120DA6E6100C0F4DFF41EC513F51FC548
:1018400014F5760E4024156E050E4120166E34C533
:1018500017F535C518F512EC0FF013C51EF514C5B4
:101860001FF51200610010F5D9F4610014F5DAF4E7
:10187000DEC4F6F4DDC4F7F4F86A0800F550250A72
:10188000D8A445EF0CF047EF0CF00CEF0DF0610021
:1018900010F5D9F4610014F5DAF4DE2A000EDD2229
:1018A000000E0501636F000E626F62C566F563C5C9
:1018B00067F564696569610010F5D9F4610014F594
:1018C000DAF4DEC4F6F4DDC4F7F4F86A0800F55083
:1018D000640AD8B46EEF0CF070EF0CF085EF0CF0EA
:1018E000610010F5D9F4610014F5DAF4DEC4F6F401
:1018F000DDC4F7F4F86A0800F550690AD8A483EF4C
:101900000CF085EF0CF0CFEF0CF0610010F5D9F47E
:10191000610014F5DAF4DE2A000EDD22610018F50C
:10192000D9F461001CF5DAF461007CF348F5020E8D
:10193000DE2661007CF349F5000EDD22610020F512
:10194000D9F4610024F5DAF4610078F34AF5610016
:1019500074F34BF5000E4BBEFF0E4C6E4D6E4E6E8B
:101960004F6E506E516E42C51EF543C51FF54AC5F8
:1019700020F54BC521F54CC522F54DC523F54EC5C7
:1019800024F54FC525F550C526F551C527F5C0EC02
:101990000AF01EC542F51FC543F52CEF0DF061009E
:1019A00010F5D9F4610014F5DAF4DEC4F6F4DDC400
:1019B000F7F4F86A0800F550250AD8A4E2EF0CF015
:1019C000E4EF0CF0FDEF0CF0610010F5D9F46100CC
:1019D00014F5DAF4DE2A000EDD22000E046E250E68
:1019E000036E42C505F543C506F575EC0FF0000E14
:1019F000436E010E426E2CEF0DF0610010F5D9F42C
:101A0000610014F5DAF4DE2A000EDD22000E436ECA
:101A1000000E426E2CEF0DF0610010F5D9F461005C
:101A200014F5DAF4DEC4F6F4DDC4F7F4F86A08005D
:101A3000F550036E046A42C505F543C506F575EC1D
:101A40000FF0610010F5D9F4610014F5DAF4DE2A24
:101A5000000EDD22F7EF0CF01200000E126E10BE29
:101A600036EF0DF034EF0DF048EF0DF0101E0F1EA5
:101A70000E1E0D1E0C1E0B1E0A1E096C000E0A22E5
:101A80000B220C220D220E220F221022010E126EAA
:101A900008BE4FEF0DF04DEF0DF061EF0DF0081E99
:101AA000071E061E051E041E031E021E016C000EEC
:101AB0000222032204220522062207220822010E06
:101AC000121A21EE13F1070EDE6AE806FDE2095054
:101AD0000A100B100C100D100E100F101010D8B4AF
:101AE00074EF0DF076EF0DF0C8EF0DF0010E116EF2
:101AF00084EF0DF0D89009360A360B360C360D36C9
:101B00000E360F361036112A10AE89EF0DF08BEF1E
:101B10000DF07AEF0DF0D8901336143615361636D0
:101B20001736183619361A360950015C0A50025811
:101B30000B5003580C5004580D5005580E500658C1
:101B40000F50075810500858D8A0A9EF0DF0ABEF70
:101B50000DF0BCEF0DF00950015E0A50025A0B5017
:101B6000035A0C50045A0D50055A0E50065A0F5085
:101B7000075A1050085A1380D89010320F320E3284
:101B80000D320C320B320A320932112E8BEF0DF06E
:101B90001250D8B4CEEF0DF0D0EF0DF0E0EF0DF015
:101BA0001A1E191E181E171E161E151E141E136C43
:101BB000000E1422152216221722182219221A2288
:101BC00013C501F514C502F515C503F516C504F5D1
:101BD00017C505F518C506F519C507F51AC508F5A1
:101BE0001200000E126E08BEFAEF0DF0F8EF0DF0C5
:101BF0000CEF0EF0081E071E061E051E041E031E17
:101C0000021E016C000E022203220422052206227B
:101C100007220822010E126E10BE13EF0EF011EF14
:101C20000EF023EF0EF0101E0F1E0E1E0D1E0C1ECA
:101C30000B1E0A1E096C000E0A220B220C220D221A
:101C40000E220F22102209500A100B100C100D103A
:101C50000E100F101010D8B430EF0EF032EF0EF05F
:101C60007AEF0EF0010E116E40EF0EF0D8900936AB
:101C70000A360B360C360D360E360F361036112A54
:101C800010AE45EF0EF047EF0EF036EF0EF00950B4
:101C9000015C0A5002580B5003580C5004580D5068
:101CA00005580E5006580F50075810500858D8A025
:101CB0005CEF0EF05EEF0EF06EEF0EF00950015E7D
:101CC0000A50025A0B50035A0C50045A0D50055A30
:101CD0000E50065A0F50075A1050085AD89010321A
:101CE0000F320E320D320C320B320A320932112E03
:101CF00047EF0EF01250D8B480EF0EF082EF0EF0E6
:101D000092EF0EF0081E071E061E051E041E031E7F
:101D1000021E016C000E022203220422052206226A
:101D20000722082201C501F502C502F503C503F526
:101D300004C504F505C505F506C506F507C507F58F
:101D400008C508F5120006EC11F0D00E8FEC12F069
:101D5000000E05019A6F120E8BEC11F001C597F57C
:101D600002C598F54DEC12F00501996F9951D8B460
:101D7000BCEF0EF0BEEF0EF0D9EF0EF09A51D8B4D2
:101D8000C4EF0EF0C6EF0EF0ABEF0EF0710E5A6E10
:101D9000150E5B6E97C55CF598C55DF5E5EC11F029
:101DA000470E5A6E150E5B6EE5EC11F0C082A8EF7F
:101DB0000EF09951D8A4DFEF0EF0E1EF0EF0ABEF8B
:101DC0000EF09A51D8A4E7EF0EF0E9EF0EF0EFEF26
:101DD0000EF05D0E5A6E150E5B6EE5EC11F0030110
:101DE0001EBFF5EF0EF0F7EF0EF00BEF0FF0C0B2E5
:101DF000FCEF0EF0FFEF0EF0010E00EF0FF0000E03
:101E0000FF0A0501966F9647C0509619FD0B96196B
:101E1000C06E03011E8F010E05019A6FABEF0EF02D
:101E2000FEEF7FF0050166A118EF0FF01AEF0FF03B
:101E300024EF0FF015C50CF516C50DF513C50EF5FD
:101E400014C50FF5A7EC10F018BE29EF0FF02BEF1B
:101E50000FF031EF0FF017C51CF518C51DF535EF64
:101E60000FF0000E1D6E000E1C6E000E1B6E000E9D
:101E70001A6E47EF0FF0000E046E200E036E13C5AE
:101E800005F514C506F575EC0FF01A4A1B2A1C500F
:101E90001A5C1B50800A196E1D50800A1958D8A070
:101EA00054EF0FF056EF0FF03BEF0FF0050166B166
:101EB0005CEF0FF05EEF0FF068EF0FF015C50CF55B
:101EC00016C50DF513C50EF514C50FF5A7EC10F0EA
:101ED00015C501F516C502F5E9EC10F01C500124FA
:101EE000136E1D500220146E120005500610D8B457
:101EF0007CEF0FF07EEF0FF087EF0FF0055006102C
:101F0000D8A485EF0FF087EF0FF08CEF0FF00350A0
:101F1000F8EC11F0BFEF0FF020EE04F00550D926D9
:101F20000650DA22DE50DE10D8B499EF0FF09BEFA6
:101F30000FF0B6EF0FF020EE04F00550D926065052
:101F4000DA2210EE02F00550E1260650E222DE50C1
:101F5000E65CE650800A0B6EDE50800A0B58D8B063
:101F6000B4EF0FF0B6EF0FF0BFEF0FF020EE02F07E
:101F70000550D9260650DA22DE2A000EDD22120094
:101F8000000EBE6E000EBF6E020EC06E1F0EC66E3D
:101F9000700EC76EFD0EC86E370E0401006F500E36
:101FA000086FFD0E106F000E016F000E096F000E1E
:101FB000116F000E026F000E0A6F000E126F370EC7
:101FC000036FF00E0B6F13693F0E046FF00E0C6F72
:101FD00014690D0E0201726F030E066F100E106F62
:101FE000000E0401056F000E066F000E076F000E55
:101FF0000D6F000E0E6F000E0F6F000E156F000EAE
:10200000166F000E176F1200000E0201A16F000E76
:10201000A26F000EA36F000EA46F000EA56F000E3E
:10202000A66F000EA76F000EA86F000EA96F000E1E
:10203000AA6FB00EAB6F800EAC6F000EAD6F330E9B
:10204000AE6F000EAF6F000EB06F000EB16F000EDE
:10205000B26F000EB36F000E016E000E026E23EC25
:1020600012F0000E016E000E026E15EC12F0000E62
:10207000016E000E026E07EC12F0000E05016F6F8C
:10208000000E6E6F120054C558F555C559F5000E77
:102090000501616F000E606F61EF10F052C542F5EF
:1020A00053C543F5580E446E050E456E56C546F5AC
:1020B00057C547F532EC0CF04250050160274350FC
:1020C0006123610060F5F6F4610064F5F7F4F86AE5
:1020D0000800F5500009D8A470EF10F072EF10F06E
:1020E0004EEF10F060C552F561C553F51200000EB9
:1020F0000301D96F000EDA6F000EDB6F000EDC6F8C
:10210000000EDF6F000EE06F000EE56F000EE76F50
:10211000000EEC6F050EEE6F000EEF6F000EF06F0D
:10212000000EF16F000EF26F000EF46F100EF56FDF
:10213000000EF66F000EF76F000EF86F000EF96FCD
:10214000000EFA6F840EF36FB494B5901200000E77
:10215000126E000E116EB8EF10F010C503F5046A90
:102160000EC505F50FC506F575EC0FF0114A122ADC
:1021700011500C24D96E12500D20DA6EDF50106E03
:102180001050D8A4C6EF10F0C8EF10F0ADEF10F06B
:10219000120014BED6EF10F0145006E11304D8B0AC
:1021A000D4EF10F0D6EF10F0E4EF10F013C515F5F2
:1021B00014C516F5151E161E154A162A15C513F553
:1021C00016C514F5E8EF10F013C513F514C514F592
:1021D000120001C503F502C504F5F1EF10F0014A44
:1021E000022A610004F4D9F4610008F4DAF4DF5043
:1021F000D8A4FDEF10F0FFEF10F0EFEF10F0035058
:10220000015C016E04500258026E12003FEC12F0A5
:10221000C0EC0FF077EC10F071EC11F057EC11F00E
:102220003DEC11F058EC12F06BEC12F094EC12F063
:1022300031EC12F0BAEC11F0A4EC11F004EC10F057
:1022400023EC11F01200D69AB490D680000E016EE5
:10225000000E026E8AEC12F0B990D682000E016E6A
:10226000000E026E85EC12F0BD90D684000E016E59
:10227000000E026E80EC12F01200020E0001D56F0B
:10228000020ED76F230ED86F220ED96F120EDA6F9F
:102290001C0EDB6F200EDC6F450EDD6F000EDE6F57
:1022A000000EDF6F000ED46F850ED66F1200010E88
:1022B0000001D56F020ED76F220ED86F1C0ED96F9A
:1022C000120EDA6F120EDB6F200EDC6F050EDD6F63
:1022D000000EDE6F000EDF6F000ED46F850ED66F1E
:1022E0001200000E0001D56F000ED76F1C0ED86FC4
:1022F000120ED96F060EDA6F1C0EDB6F080EDC6F44
:10230000020EDD6F000EDE6F000EDF6F000ED46F69
:10231000850ED66F1200056E610014F4ECF3030114
:10232000F38FF39DF381F3B198EF11F09AEF11F071
:1023300093EF11F0EB51046E036AEA510324016E2E
:10234000000E0420026E1200040E03012D6F000E19
:102350002C6F000E2E6FF70E2A6F000E296F000EE5
:10236000016E000E026E76EC12F0BD96800E030137
:102370002B6F1200040E0301206F080E1F6F000E5A
:10238000216F600E1D6F000E1C6F000E016E000E9F
:10239000026E7BEC12F0B696E00E03011E6F120087
:1023A000000E016E0201B0ABD8EF11F0DAEF11F0C0
:1023B000E3EF11F0ABABDFEF11F0E1EF11F0E3EF82
:1023C00011F0010E016E015012005C0E5E6E050EE2
:1023D0005F6E000E526E000E536E5AC554F55BC50B
:1023E00055F55E0E566E050E576E43EC10F012005A
:1023F000026ED0EC11F00009D8B401EF12F003EF37
:1024000012F0F9EF11F0025071EC12F012000150CD
:102410000210D8B40EEF12F010EF12F014EF12F019
:1024200001C568F502C569F5120001500210D8B463
:102430001CEF12F01EEF12F022EF12F001C56AF548
:1024400002C56BF5120001500210D8B42AEF12F049
:102450002CEF12F030EF12F001C56CF502C56DF5EE
:1024600012002F0E0001A46F120EA56F810EA66F31
:10247000800EA76F000EA96FA00EA36F1200600E52
:102480000001AD6F000EAF6F000EB36F020EB16FA3
:10249000000EB06F000EAC6F12000001D4B553EF08
:1024A00012F056EF12F0010E57EF12F0000E12006C
:1024B000820E0001706F000E716F020E726F050EBA
:1024C000736F120001EE60F1360EEE6AE806FDE170
:1024D0000001A3EF0EF0800E0001A26F740EA06F3A
:1024E0001200016E610004F4A3F2120001C59BF515
:1024F00002C59CF5120001C59DF502C59EF51200AE
:1025000001C570F502C571F5120001C572F502C56D
:1025100073F5120001C574F502C575F51200016E60
:10252000610004F4A0F01200C00E0301D76F120086
:04FFFC0062EF12F0AE
:020000040020DA
:10000000FF0FFF0FFF0FFF0FFF0FFF0FFF0FFF0F80
:10001000FF0FFF0FFF0FFF0FFF0FFF0FFF0FFF0F70
:10002000FF0FFF0FFF0FFF0FFF0FFF0FFF0FFF0F60
:10003000FF0FFF0FFF0FFF0FFF0FFF0FFF0FFF0F50
:020000040030CA
:0A0000008CFFF7FF9FFFFFFFFFFFDB
:00000001FF
